{
  "_format": "hh-sol-artifact-1",
  "contractName": "ProductRegistry",
  "sourceName": "contracts/ProductRegistry.sol",
  "abi": [
    {
      "anonymous": false,
      "inputs": [
        {
          "indexed": false,
          "internalType": "string",
          "name": "productId",
          "type": "string"
        }
      ],
      "name": "ProductRegistered",
      "type": "event"
    },
    {
      "inputs": [
        {
          "internalType": "string",
          "name": "productId",
          "type": "string"
        }
      ],
      "name": "isProductRegistered",
      "outputs": [
        {
          "internalType": "bool",
          "name": "",
          "type": "bool"
        }
      ],
      "stateMutability": "view",
      "type": "function"
    },
    {
      "inputs": [
        {
          "internalType": "string[]",
          "name": "productIds",
          "type": "string[]"
        }
      ],
      "name": "registerProducts",
      "outputs": [],
      "stateMutability": "nonpayable",
      "type": "function"
    }
  ],
  "bytecode": "0x608060405234801561001057600080fd5b50610754806100206000396000f3fe608060405234801561001057600080fd5b50600436106100365760003560e01c80631e764d451461003b578063c0f71d681461006b575b600080fd5b61005560048036038101906100509190610360565b610087565b60405161006291906103c4565b60405180910390f35b610085600480360381019061008091906104c5565b6100bb565b005b60008082604051610098919061057f565b908152602001604051809103902060009054906101000a900460ff169050919050565b60005b81518110156102025760008282815181106100dc576100db610596565b5b60200260200101516040516100f1919061057f565b908152602001604051809103902060009054906101000a900460ff161561014d576040517f08c379a000000000000000000000000000000000000000000000000000000000815260040161014490610622565b60405180910390fd5b6001600083838151811061016457610163610596565b5b6020026020010151604051610179919061057f565b908152602001604051809103902060006101000a81548160ff0219169083151502179055507f64a419b89f732445e89c3995d6b700552a1ae00477b9b79a18810cf5009054188282815181106101d2576101d1610596565b5b60200260200101516040516101e7919061067b565b60405180910390a180806101fa906106d6565b9150506100be565b5050565b6000604051905090565b600080fd5b600080fd5b600080fd5b600080fd5b6000601f19601f8301169050919050565b7f4e487b7100000000000000000000000000000000000000000000000000000000600052604160045260246000fd5b61026d82610224565b810181811067ffffffffffffffff8211171561028c5761028b610235565b5b80604052505050565b600061029f610206565b90506102ab8282610264565b919050565b600067ffffffffffffffff8211156102cb576102ca610235565b5b6102d482610224565b9050602081019050919050565b82818337600083830152505050565b60006103036102fe846102b0565b610295565b90508281526020810184848401111561031f5761031e61021f565b5b61032a8482856102e1565b509392505050565b600082601f8301126103475761034661021a565b5b81356103578482602086016102f0565b91505092915050565b60006020828403121561037657610375610210565b5b600082013567ffffffffffffffff81111561039457610393610215565b5b6103a084828501610332565b91505092915050565b60008115159050919050565b6103be816103a9565b82525050565b60006020820190506103d960008301846103b5565b92915050565b600067ffffffffffffffff8211156103fa576103f9610235565b5b602082029050602081019050919050565b600080fd5b600061042361041e846103df565b610295565b905080838252602082019050602084028301858111156104465761044561040b565b5b835b8181101561048d57803567ffffffffffffffff81111561046b5761046a61021a565b5b8086016104788982610332565b85526020850194505050602081019050610448565b5050509392505050565b600082601f8301126104ac576104ab61021a565b5b81356104bc848260208601610410565b91505092915050565b6000602082840312156104db576104da610210565b5b600082013567ffffffffffffffff8111156104f9576104f8610215565b5b61050584828501610497565b91505092915050565b600081519050919050565b600081905092915050565b60005b83811015610542578082015181840152602081019050610527565b60008484015250505050565b60006105598261050e565b6105638185610519565b9350610573818560208601610524565b80840191505092915050565b600061058b828461054e565b915081905092915050565b7f4e487b7100000000000000000000000000000000000000000000000000000000600052603260045260246000fd5b600082825260208201905092915050565b7f50726f6475637420616c72656164792065786973747300000000000000000000600082015250565b600061060c6016836105c5565b9150610617826105d6565b602082019050919050565b6000602082019050818103600083015261063b816105ff565b9050919050565b600061064d8261050e565b61065781856105c5565b9350610667818560208601610524565b61067081610224565b840191505092915050565b600060208201905081810360008301526106958184610642565b905092915050565b7f4e487b7100000000000000000000000000000000000000000000000000000000600052601160045260246000fd5b6000819050919050565b60006106e1826106cc565b91507fffffffffffffffffffffffffffffffffffffffffffffffffffffffffffffffff82036107135761071261069d565b5b60018201905091905056fea264697066735822122076b9dde5a39a4c89a8578cf5e10263dafcf19b7a74235d610967f096d4cb311f64736f6c63430008140033",
  "linkReferences": {},
  "deployedLinkReferences": {}
}